{
  "_format": "hh-sol-artifact-1",
  "contractName": "PrivateVoting",
  "sourceName": "contracts/PrivateVoting.sol",
  "abi": [
    {
      "anonymous": false,
      "inputs": [
        {
          "indexed": true,
          "internalType": "uint256",
          "name": "proposalId",
          "type": "uint256"
        },
        {
          "indexed": false,
          "internalType": "string",
          "name": "description",
          "type": "string"
        }
      ],
      "name": "ProposalCreated",
      "type": "event"
    },
    {
      "anonymous": false,
      "inputs": [
        {
          "indexed": true,
          "internalType": "uint256",
          "name": "proposalId",
          "type": "uint256"
        },
        {
          "indexed": true,
          "internalType": "address",
          "name": "voter",
          "type": "address"
        },
        {
          "indexed": false,
          "internalType": "bytes",
          "name": "encryptedVote",
          "type": "bytes"
        }
      ],
      "name": "Voted",
      "type": "event"
    },
    {
      "anonymous": false,
      "inputs": [
        {
          "indexed": true,
          "internalType": "uint256",
          "name": "proposalId",
          "type": "uint256"
        }
      ],
      "name": "VotingClosed",
      "type": "event"
    },
    {
      "inputs": [
        {
          "internalType": "string",
          "name": "description",
          "type": "string"
        },
        {
          "internalType": "uint256",
          "name": "quorum",
          "type": "uint256"
        }
      ],
      "name": "createProposal",
      "outputs": [
        {
          "internalType": "uint256",
          "name": "proposalId",
          "type": "uint256"
        }
      ],
      "stateMutability": "nonpayable",
      "type": "function"
    },
    {
      "inputs": [
        {
          "internalType": "bool",
          "name": "open",
          "type": "bool"
        }
      ],
      "name": "getAllProposals",
      "outputs": [
        {
          "components": [
            {
              "internalType": "uint256",
              "name": "id",
              "type": "uint256"
            },
            {
              "internalType": "string",
              "name": "description",
              "type": "string"
            },
            {
              "internalType": "uint256",
              "name": "quorum",
              "type": "uint256"
            },
            {
              "internalType": "uint256",
              "name": "voteCount",
              "type": "uint256"
            },
            {
              "internalType": "bytes[]",
              "name": "encryptedVotes",
              "type": "bytes[]"
            }
          ],
          "internalType": "struct PrivateVoting.ProposalInfo[]",
          "name": "",
          "type": "tuple[]"
        }
      ],
      "stateMutability": "view",
      "type": "function"
    },
    {
      "inputs": [
        {
          "internalType": "uint256",
          "name": "proposalId",
          "type": "uint256"
        }
      ],
      "name": "getProposal",
      "outputs": [
        {
          "internalType": "uint256",
          "name": "",
          "type": "uint256"
        },
        {
          "internalType": "string",
          "name": "",
          "type": "string"
        },
        {
          "internalType": "uint256",
          "name": "",
          "type": "uint256"
        },
        {
          "internalType": "uint256",
          "name": "",
          "type": "uint256"
        }
      ],
      "stateMutability": "view",
      "type": "function"
    },
    {
      "inputs": [
        {
          "internalType": "uint256",
          "name": "proposalId",
          "type": "uint256"
        }
      ],
      "name": "getVotes",
      "outputs": [
        {
          "internalType": "bytes[]",
          "name": "",
          "type": "bytes[]"
        }
      ],
      "stateMutability": "view",
      "type": "function"
    },
    {
      "inputs": [],
      "name": "nextProposalId",
      "outputs": [
        {
          "internalType": "uint256",
          "name": "",
          "type": "uint256"
        }
      ],
      "stateMutability": "view",
      "type": "function"
    },
    {
      "inputs": [
        {
          "internalType": "uint256",
          "name": "",
          "type": "uint256"
        }
      ],
      "name": "proposals",
      "outputs": [
        {
          "internalType": "uint256",
          "name": "id",
          "type": "uint256"
        },
        {
          "internalType": "string",
          "name": "description",
          "type": "string"
        },
        {
          "internalType": "uint256",
          "name": "quorum",
          "type": "uint256"
        },
        {
          "internalType": "uint256",
          "name": "voteCount",
          "type": "uint256"
        }
      ],
      "stateMutability": "view",
      "type": "function"
    },
    {
      "inputs": [
        {
          "internalType": "uint256",
          "name": "proposalId",
          "type": "uint256"
        },
        {
          "internalType": "bytes",
          "name": "encryptedVote",
          "type": "bytes"
        }
      ],
      "name": "vote",
      "outputs": [],
      "stateMutability": "nonpayable",
      "type": "function"
    }
  ],
  "bytecode": "0x60806040526001805534801561001457600080fd5b50610e1d806100246000396000f3fe608060405234801561001057600080fd5b506004361061007d5760003560e01c8063b88b82ba1161005b578063b88b82ba146100d8578063c7f758a8146100ed578063ccac811514610100578063ff9810991461012057600080fd5b8063013cf08b146100825780632ab09d14146100ae57806335facf78146100c5575b600080fd5b6100956100903660046109e1565b610140565b6040516100a59493929190610a47565b60405180910390f35b6100b760015481565b6040519081526020016100a5565b6100b76100d3366004610a89565b6101f1565b6100eb6100e6366004610b3e565b610278565b005b6100956100fb3660046109e1565b6103fa565b61011361010e366004610bba565b6104c6565b6040516100a59190610be3565b61013361012e3660046109e1565b6107ee565b6040516100a59190610cc9565b6000602081905290815260409020805460018201805491929161016290610d2b565b80601f016020809104026020016040519081016040528092919081815260200182805461018e90610d2b565b80156101db5780601f106101b0576101008083540402835291602001916101db565b820191906000526020600020905b8154815290600101906020018083116101be57829003601f168201915b5050505050908060040154908060050154905084565b60018054908190600061020383610d66565b90915550506000818152602081815260409091208281558451909161022f9160018401918701906108d4565b50828160040181905550817f9c770c289ab5bf7e57cb1d23c8ceae993aea46eb64847072fd3d78ca60d3e432856040516102699190610d8f565b60405180910390a25092915050565b600083815260208181526040808320338452600281019092529091205460ff16156102da5760405162461bcd60e51b815260206004820152600d60248201526c105b1c9958591e481d9bdd1959609a1b60448201526064015b60405180910390fd5b80600401548160050154106103215760405162461bcd60e51b815260206004820152600d60248201526c159bdd1a5b99c818db1bdcd959609a1b60448201526064016102d1565b6003810180546001810182556000918252602090912061034391018484610958565b503360009081526002820160205260408120805460ff191660011790556005820180549161037083610d66565b9190505550336001600160a01b0316847f0aa382db139349751d2b57a2da636b9a7335a30ae382775d4c1c7bc92e9b6a3285856040516103b1929190610da2565b60405180910390a380600401548160050154106103f45760405184907f8e9b46a70b3967bc9ea56ca61732c363a191fac88ae3ba011f4e030711c9011790600090a25b50505050565b60006060600080600080600087815260200190815260200160002090508060000154816001018260040154836005015482805461043690610d2b565b80601f016020809104026020016040519081016040528092919081815260200182805461046290610d2b565b80156104af5780601f10610484576101008083540402835291602001916104af565b820191906000526020600020905b81548152906001019060200180831161049257829003601f168201915b505050505092509450945094509450509193509193565b6060600060015b60015481101561051a5760008181526020819052604090206004810154600590910154108415151415610508578161050481610d66565b9250505b8061051281610d66565b9150506104cd565b5060008167ffffffffffffffff81111561053657610536610a73565b60405190808252806020026020018201604052801561059957816020015b6105866040518060a0016040528060008152602001606081526020016000815260200160008152602001606081525090565b8152602001906001900390816105545790505b509050600060015b6001548110156107e457600081815260208190526040902060048101546005909101541086151514156107d25760008181526020818152604091829020825160a081019093528054835260018101805491939283019161060090610d2b565b80601f016020809104026020016040519081016040528092919081815260200182805461062c90610d2b565b80156106795780601f1061064e57610100808354040283529160200191610679565b820191906000526020600020905b81548152906001019060200180831161065c57829003601f168201915b505050505081526020018260040154815260200182600501548152602001886107755782600301805480602002602001604051908101604052809291908181526020016000905b8282101561076c5783829060005260206000200180546106df90610d2b565b80601f016020809104026020016040519081016040528092919081815260200182805461070b90610d2b565b80156107585780601f1061072d57610100808354040283529160200191610758565b820191906000526020600020905b81548152906001019060200180831161073b57829003601f168201915b5050505050815260200190600101906106c0565b505050506107a2565b60408051600080825260208201909252906107a0565b606081526020019060019003908161078b5790505b505b8152508484815181106107b7576107b7610dd1565b602002602001018190525082806107cd90610d66565b935050505b806107dc81610d66565b9150506105a1565b5090949350505050565b600081815260208181526040808320600301805482518185028101850190935280835260609492939192909184015b828210156108c957838290600052602060002001805461083c90610d2b565b80601f016020809104026020016040519081016040528092919081815260200182805461086890610d2b565b80156108b55780601f1061088a576101008083540402835291602001916108b5565b820191906000526020600020905b81548152906001019060200180831161089857829003601f168201915b50505050508152602001906001019061081d565b505050509050919050565b8280546108e090610d2b565b90600052602060002090601f0160209004810192826109025760008555610948565b82601f1061091b57805160ff1916838001178555610948565b82800160010185558215610948579182015b8281111561094857825182559160200191906001019061092d565b506109549291506109cc565b5090565b82805461096490610d2b565b90600052602060002090601f0160209004810192826109865760008555610948565b82601f1061099f5782800160ff19823516178555610948565b82800160010185558215610948579182015b828111156109485782358255916020019190600101906109b1565b5b8082111561095457600081556001016109cd565b6000602082840312156109f357600080fd5b5035919050565b6000815180845260005b81811015610a2057602081850181015186830182015201610a04565b81811115610a32576000602083870101525b50601f01601f19169290920160200192915050565b848152608060208201526000610a6060808301866109fa565b6040830194909452506060015292915050565b634e487b7160e01b600052604160045260246000fd5b60008060408385031215610a9c57600080fd5b823567ffffffffffffffff80821115610ab457600080fd5b818501915085601f830112610ac857600080fd5b813581811115610ada57610ada610a73565b604051601f8201601f19908116603f01168101908382118183101715610b0257610b02610a73565b81604052828152886020848701011115610b1b57600080fd5b826020860160208301376000602093820184015298969091013596505050505050565b600080600060408486031215610b5357600080fd5b83359250602084013567ffffffffffffffff80821115610b7257600080fd5b818601915086601f830112610b8657600080fd5b813581811115610b9557600080fd5b876020828501011115610ba757600080fd5b6020830194508093505050509250925092565b600060208284031215610bcc57600080fd5b81358015158114610bdc57600080fd5b9392505050565b602080825282518282018190526000919060409081850190600581811b8701840188860187805b85811015610cb957603f198b8503018752825160a0815186528a820151818c880152610c38828801826109fa565b838c0151888d015260608085015190890152608093840151888203948901949094528351808252938d01939092508c8301915080891b83018d01865b82811015610ca257601f19858303018452610c908287516109fa565b958f0195938f01939150600101610c74565b509a8d019a97505050938a01935050600101610c0a565b50919a9950505050505050505050565b6000602080830181845280855180835260408601915060408160051b870101925083870160005b82811015610d1e57603f19888603018452610d0c8583516109fa565b94509285019290850190600101610cf0565b5092979650505050505050565b600181811c90821680610d3f57607f821691505b60208210811415610d6057634e487b7160e01b600052602260045260246000fd5b50919050565b6000600019821415610d8857634e487b7160e01b600052601160045260246000fd5b5060010190565b602081526000610bdc60208301846109fa565b60208152816020820152818360408301376000818301604090810191909152601f909201601f19160101919050565b634e487b7160e01b600052603260045260246000fdfea264697066735822122058b70bfc059147fc030b5843814f46f6bd1e6bde109a0f7ff876dcc9872ef09264736f6c63430008090033",
  "linkReferences": {},
  "deployedLinkReferences": {}
}